{
  "_format": "hh-sol-artifact-1",
  "contractName": "PublicSale",
  "sourceName": "contracts/PublicSale.sol",
  "abi": [
    {
      "inputs": [
        {
          "internalType": "uint256",
          "name": "_price",
          "type": "uint256"
        },
        {
          "internalType": "string",
          "name": "_description",
          "type": "string"
        }
      ],
      "stateMutability": "nonpayable",
      "type": "constructor"
    },
    {
      "anonymous": false,
      "inputs": [
        {
          "indexed": false,
          "internalType": "bool",
          "name": "_isSold",
          "type": "bool"
        }
      ],
      "name": "IsSoldUpdated",
      "type": "event"
    },
    {
      "anonymous": false,
      "inputs": [
        {
          "indexed": false,
          "internalType": "string",
          "name": "_description",
          "type": "string"
        }
      ],
      "name": "ItemDescriptionUpdated",
      "type": "event"
    },
    {
      "anonymous": false,
      "inputs": [
        {
          "indexed": false,
          "internalType": "address",
          "name": "_newOwner",
          "type": "address"
        }
      ],
      "name": "OwnershipTransferred",
      "type": "event"
    },
    {
      "anonymous": false,
      "inputs": [
        {
          "indexed": false,
          "internalType": "uint256",
          "name": "_price",
          "type": "uint256"
        }
      ],
      "name": "PriceUpdated",
      "type": "event"
    },
    {
      "anonymous": false,
      "inputs": [],
      "name": "PurchaseConfirmed",
      "type": "event"
    },
    {
      "inputs": [],
      "name": "buy",
      "outputs": [],
      "stateMutability": "payable",
      "type": "function"
    },
    {
      "inputs": [],
      "name": "description",
      "outputs": [
        {
          "internalType": "string",
          "name": "",
          "type": "string"
        }
      ],
      "stateMutability": "view",
      "type": "function"
    },
    {
      "inputs": [],
      "name": "getBalance",
      "outputs": [
        {
          "internalType": "uint256",
          "name": "",
          "type": "uint256"
        }
      ],
      "stateMutability": "view",
      "type": "function"
    },
    {
      "inputs": [],
      "name": "isSold",
      "outputs": [
        {
          "internalType": "bool",
          "name": "",
          "type": "bool"
        }
      ],
      "stateMutability": "view",
      "type": "function"
    },
    {
      "inputs": [],
      "name": "owner",
      "outputs": [
        {
          "internalType": "address",
          "name": "",
          "type": "address"
        }
      ],
      "stateMutability": "view",
      "type": "function"
    },
    {
      "inputs": [],
      "name": "price",
      "outputs": [
        {
          "internalType": "uint256",
          "name": "",
          "type": "uint256"
        }
      ],
      "stateMutability": "view",
      "type": "function"
    },
    {
      "inputs": [
        {
          "internalType": "address",
          "name": "_newOwner",
          "type": "address"
        }
      ],
      "name": "transferOwnership",
      "outputs": [],
      "stateMutability": "nonpayable",
      "type": "function"
    },
    {
      "inputs": [
        {
          "internalType": "string",
          "name": "_description",
          "type": "string"
        }
      ],
      "name": "updateDescription",
      "outputs": [],
      "stateMutability": "nonpayable",
      "type": "function"
    },
    {
      "inputs": [
        {
          "internalType": "bool",
          "name": "_isSold",
          "type": "bool"
        }
      ],
      "name": "updateIsSold",
      "outputs": [],
      "stateMutability": "nonpayable",
      "type": "function"
    },
    {
      "inputs": [
        {
          "internalType": "uint256",
          "name": "_price",
          "type": "uint256"
        }
      ],
      "name": "updatePrice",
      "outputs": [],
      "stateMutability": "nonpayable",
      "type": "function"
    }
  ],
  "bytecode": "0x60806040523480156200001157600080fd5b506040516200178f3803806200178f833981810160405281019062000037919062000266565b336000806101000a81548173ffffffffffffffffffffffffffffffffffffffff021916908373ffffffffffffffffffffffffffffffffffffffff1602179055508160018190555080600290816200008f91906200050d565b505050620005f4565b6000604051905090565b600080fd5b600080fd5b6000819050919050565b620000c181620000ac565b8114620000cd57600080fd5b50565b600081519050620000e181620000b6565b92915050565b600080fd5b600080fd5b6000601f19601f8301169050919050565b7f4e487b7100000000000000000000000000000000000000000000000000000000600052604160045260246000fd5b6200013c82620000f1565b810181811067ffffffffffffffff821117156200015e576200015d62000102565b5b80604052505050565b60006200017362000098565b905062000181828262000131565b919050565b600067ffffffffffffffff821115620001a457620001a362000102565b5b620001af82620000f1565b9050602081019050919050565b60005b83811015620001dc578082015181840152602081019050620001bf565b60008484015250505050565b6000620001ff620001f98462000186565b62000167565b9050828152602081018484840111156200021e576200021d620000ec565b5b6200022b848285620001bc565b509392505050565b600082601f8301126200024b576200024a620000e7565b5b81516200025d848260208601620001e8565b91505092915050565b6000806040838503121562000280576200027f620000a2565b5b60006200029085828601620000d0565b925050602083015167ffffffffffffffff811115620002b457620002b3620000a7565b5b620002c28582860162000233565b9150509250929050565b600081519050919050565b7f4e487b7100000000000000000000000000000000000000000000000000000000600052602260045260246000fd5b600060028204905060018216806200031f57607f821691505b602082108103620003355762000334620002d7565b5b50919050565b60008190508160005260206000209050919050565b60006020601f8301049050919050565b600082821b905092915050565b6000600883026200039f7fffffffffffffffffffffffffffffffffffffffffffffffffffffffffffffffff8262000360565b620003ab868362000360565b95508019841693508086168417925050509392505050565b6000819050919050565b6000620003ee620003e8620003e284620000ac565b620003c3565b620000ac565b9050919050565b6000819050919050565b6200040a83620003cd565b620004226200041982620003f5565b8484546200036d565b825550505050565b600090565b620004396200042a565b62000446818484620003ff565b505050565b5b818110156200046e57620004626000826200042f565b6001810190506200044c565b5050565b601f821115620004bd5762000487816200033b565b620004928462000350565b81016020851015620004a2578190505b620004ba620004b18562000350565b8301826200044b565b50505b505050565b600082821c905092915050565b6000620004e260001984600802620004c2565b1980831691505092915050565b6000620004fd8383620004cf565b9150826002028217905092915050565b6200051882620002cc565b67ffffffffffffffff81111562000534576200053362000102565b5b62000540825462000306565b6200054d82828562000472565b600060209050601f83116001811462000585576000841562000570578287015190505b6200057c8582620004ef565b865550620005ec565b601f19841662000595866200033b565b60005b82811015620005bf5784890151825560018201915060208501945060208101905062000598565b86831015620005df5784890151620005db601f891682620004cf565b8355505b6001600288020188555050505b505050505050565b61118b80620006046000396000f3fe6080604052600436106100915760003560e01c8063a035b1fe11610059578063a035b1fe14610169578063a6f2ae3a14610194578063e735b48a1461019e578063e852e741146101c7578063f2fde38b146101f257610091565b806312065fe0146100965780637284e416146100c15780638d6cc56d146100ec5780638da5cb5b14610115578063900c8b8514610140575b600080fd5b3480156100a257600080fd5b506100ab61021b565b6040516100b89190610885565b60405180910390f35b3480156100cd57600080fd5b506100d6610223565b6040516100e39190610930565b60405180910390f35b3480156100f857600080fd5b50610113600480360381019061010e9190610992565b6102b1565b005b34801561012157600080fd5b5061012a610380565b6040516101379190610a00565b60405180910390f35b34801561014c57600080fd5b5061016760048036038101906101629190610a53565b6103a4565b005b34801561017557600080fd5b5061017e610486565b60405161018b9190610885565b60405180910390f35b61019c61048c565b005b3480156101aa57600080fd5b506101c560048036038101906101c09190610bb5565b610679565b005b3480156101d357600080fd5b506101dc610751565b6040516101e99190610c0d565b60405180910390f35b3480156101fe57600080fd5b5061021960048036038101906102149190610c54565b610764565b005b600047905090565b6002805461023090610cb0565b80601f016020809104026020016040519081016040528092919081815260200182805461025c90610cb0565b80156102a95780601f1061027e576101008083540402835291602001916102a9565b820191906000526020600020905b81548152906001019060200180831161028c57829003601f168201915b505050505081565b60008054906101000a900473ffffffffffffffffffffffffffffffffffffffff1673ffffffffffffffffffffffffffffffffffffffff163373ffffffffffffffffffffffffffffffffffffffff161461033f576040517f08c379a000000000000000000000000000000000000000000000000000000000815260040161033690610d2d565b60405180910390fd5b806001819055507f66cbca4f3c64fecf1dcb9ce094abcf7f68c3450a1d4e3a8e917dd621edb4ebe0816040516103759190610885565b60405180910390a150565b60008054906101000a900473ffffffffffffffffffffffffffffffffffffffff1681565b60008054906101000a900473ffffffffffffffffffffffffffffffffffffffff1673ffffffffffffffffffffffffffffffffffffffff163373ffffffffffffffffffffffffffffffffffffffff1614610432576040517f08c379a000000000000000000000000000000000000000000000000000000000815260040161042990610d2d565b60405180910390fd5b80600360006101000a81548160ff0219169083151502179055507f8be5f835c7c1e652b6d117d33413656b4b8c32902f215aa5d6c3e51a9f02920c8160405161047b9190610c0d565b60405180910390a150565b60015481565b60015434146104d0576040517f08c379a00000000000000000000000000000000000000000000000000000000081526004016104c790610d99565b60405180910390fd5b600360009054906101000a900460ff1615610520576040517f08c379a000000000000000000000000000000000000000000000000000000000815260040161051790610e05565b60405180910390fd5b60008060009054906101000a900473ffffffffffffffffffffffffffffffffffffffff1673ffffffffffffffffffffffffffffffffffffffff1660015460405161056990610e56565b60006040518083038185875af1925050503d80600081146105a6576040519150601f19603f3d011682016040523d82523d6000602084013e6105ab565b606091505b50509050806105ef576040517f08c379a00000000000000000000000000000000000000000000000000000000081526004016105e690610eb7565b60405180910390fd5b336000806101000a81548173ffffffffffffffffffffffffffffffffffffffff021916908373ffffffffffffffffffffffffffffffffffffffff1602179055506001600360006101000a81548160ff0219169083151502179055507fd5d55c8a68912e9a110618df8d5e2e83b8d83211c57a8ddd1203df92885dc88160405160405180910390a150565b60008054906101000a900473ffffffffffffffffffffffffffffffffffffffff1673ffffffffffffffffffffffffffffffffffffffff163373ffffffffffffffffffffffffffffffffffffffff1614610707576040517f08c379a00000000000000000000000000000000000000000000000000000000081526004016106fe90610d2d565b60405180910390fd5b80600290816107169190611083565b507fdb9063fd39948804d940bd9f28a129f2ac4cf6d20a1cd25ae5ef55ce695e4223816040516107469190610930565b60405180910390a150565b600360009054906101000a900460ff1681565b60008054906101000a900473ffffffffffffffffffffffffffffffffffffffff1673ffffffffffffffffffffffffffffffffffffffff163373ffffffffffffffffffffffffffffffffffffffff16146107f2576040517f08c379a00000000000000000000000000000000000000000000000000000000081526004016107e990610d2d565b60405180910390fd5b806000806101000a81548173ffffffffffffffffffffffffffffffffffffffff021916908373ffffffffffffffffffffffffffffffffffffffff1602179055507f04dba622d284ed0014ee4b9a6a68386be1a4c08a4913ae272de89199cc686163816040516108619190610a00565b60405180910390a150565b6000819050919050565b61087f8161086c565b82525050565b600060208201905061089a6000830184610876565b92915050565b600081519050919050565b600082825260208201905092915050565b60005b838110156108da5780820151818401526020810190506108bf565b60008484015250505050565b6000601f19601f8301169050919050565b6000610902826108a0565b61090c81856108ab565b935061091c8185602086016108bc565b610925816108e6565b840191505092915050565b6000602082019050818103600083015261094a81846108f7565b905092915050565b6000604051905090565b600080fd5b600080fd5b61096f8161086c565b811461097a57600080fd5b50565b60008135905061098c81610966565b92915050565b6000602082840312156109a8576109a761095c565b5b60006109b68482850161097d565b91505092915050565b600073ffffffffffffffffffffffffffffffffffffffff82169050919050565b60006109ea826109bf565b9050919050565b6109fa816109df565b82525050565b6000602082019050610a1560008301846109f1565b92915050565b60008115159050919050565b610a3081610a1b565b8114610a3b57600080fd5b50565b600081359050610a4d81610a27565b92915050565b600060208284031215610a6957610a6861095c565b5b6000610a7784828501610a3e565b91505092915050565b600080fd5b600080fd5b7f4e487b7100000000000000000000000000000000000000000000000000000000600052604160045260246000fd5b610ac2826108e6565b810181811067ffffffffffffffff82111715610ae157610ae0610a8a565b5b80604052505050565b6000610af4610952565b9050610b008282610ab9565b919050565b600067ffffffffffffffff821115610b2057610b1f610a8a565b5b610b29826108e6565b9050602081019050919050565b82818337600083830152505050565b6000610b58610b5384610b05565b610aea565b905082815260208101848484011115610b7457610b73610a85565b5b610b7f848285610b36565b509392505050565b600082601f830112610b9c57610b9b610a80565b5b8135610bac848260208601610b45565b91505092915050565b600060208284031215610bcb57610bca61095c565b5b600082013567ffffffffffffffff811115610be957610be8610961565b5b610bf584828501610b87565b91505092915050565b610c0781610a1b565b82525050565b6000602082019050610c226000830184610bfe565b92915050565b610c31816109df565b8114610c3c57600080fd5b50565b600081359050610c4e81610c28565b92915050565b600060208284031215610c6a57610c6961095c565b5b6000610c7884828501610c3f565b91505092915050565b7f4e487b7100000000000000000000000000000000000000000000000000000000600052602260045260246000fd5b60006002820490506001821680610cc857607f821691505b602082108103610cdb57610cda610c81565b5b50919050565b7f4f776e61626c653a2063616c6c6572206973206e6f7420746865206f776e6572600082015250565b6000610d176020836108ab565b9150610d2282610ce1565b602082019050919050565b60006020820190508181036000830152610d4681610d0a565b9050919050565b7f57726f6e67207072696365000000000000000000000000000000000000000000600082015250565b6000610d83600b836108ab565b9150610d8e82610d4d565b602082019050919050565b60006020820190508181036000830152610db281610d76565b9050919050565b7f4974656d20697320616c726561647920736f6c64000000000000000000000000600082015250565b6000610def6014836108ab565b9150610dfa82610db9565b602082019050919050565b60006020820190508181036000830152610e1e81610de2565b9050919050565b600081905092915050565b50565b6000610e40600083610e25565b9150610e4b82610e30565b600082019050919050565b6000610e6182610e33565b9150819050919050565b7f4661696c656420746f2073656e64204574686572000000000000000000000000600082015250565b6000610ea16014836108ab565b9150610eac82610e6b565b602082019050919050565b60006020820190508181036000830152610ed081610e94565b9050919050565b60008190508160005260206000209050919050565b60006020601f8301049050919050565b600082821b905092915050565b600060088302610f397fffffffffffffffffffffffffffffffffffffffffffffffffffffffffffffffff82610efc565b610f438683610efc565b95508019841693508086168417925050509392505050565b6000819050919050565b6000610f80610f7b610f768461086c565b610f5b565b61086c565b9050919050565b6000819050919050565b610f9a83610f65565b610fae610fa682610f87565b848454610f09565b825550505050565b600090565b610fc3610fb6565b610fce818484610f91565b505050565b5b81811015610ff257610fe7600082610fbb565b600181019050610fd4565b5050565b601f8211156110375761100881610ed7565b61101184610eec565b81016020851015611020578190505b61103461102c85610eec565b830182610fd3565b50505b505050565b600082821c905092915050565b600061105a6000198460080261103c565b1980831691505092915050565b60006110738383611049565b9150826002028217905092915050565b61108c826108a0565b67ffffffffffffffff8111156110a5576110a4610a8a565b5b6110af8254610cb0565b6110ba828285610ff6565b600060209050601f8311600181146110ed57600084156110db578287015190505b6110e58582611067565b86555061114d565b601f1984166110fb86610ed7565b60005b82811015611123578489015182556001820191506020850194506020810190506110fe565b86831015611140578489015161113c601f891682611049565b8355505b6001600288020188555050505b50505050505056fea2646970667358221220143f7c0b44eff42177ca8714067cc1accddb05cfefef3c8d60883a4de97c608064736f6c63430008110033",
  "linkReferences": {},
  "deployedLinkReferences": {}
}