{
  "_format": "hh-sol-artifact-1",
  "contractName": "Escrow",
  "sourceName": "contracts/Escrow.sol",
  "abi": [
    {
      "inputs": [
        {
          "internalType": "address",
          "name": "_arbiter",
          "type": "address"
        },
        {
          "internalType": "address",
          "name": "_beneficiary",
          "type": "address"
        }
      ],
      "stateMutability": "payable",
      "type": "constructor"
    },
    {
      "anonymous": false,
      "inputs": [
        {
          "indexed": false,
          "internalType": "uint256",
          "name": "",
          "type": "uint256"
        }
      ],
      "name": "Approved",
      "type": "event"
    },
    {
      "inputs": [],
      "name": "approve",
      "outputs": [],
      "stateMutability": "nonpayable",
      "type": "function"
    },
    {
      "inputs": [],
      "name": "arbiter",
      "outputs": [
        {
          "internalType": "address",
          "name": "",
          "type": "address"
        }
      ],
      "stateMutability": "view",
      "type": "function"
    },
    {
      "inputs": [],
      "name": "beneficiary",
      "outputs": [
        {
          "internalType": "address",
          "name": "",
          "type": "address"
        }
      ],
      "stateMutability": "view",
      "type": "function"
    },
    {
      "inputs": [],
      "name": "depositor",
      "outputs": [
        {
          "internalType": "address",
          "name": "",
          "type": "address"
        }
      ],
      "stateMutability": "view",
      "type": "function"
    },
    {
      "inputs": [],
      "name": "isApproved",
      "outputs": [
        {
          "internalType": "bool",
          "name": "",
          "type": "bool"
        }
      ],
      "stateMutability": "view",
      "type": "function"
    }
  ],
  "bytecode": "0x608060405260405162000a9138038062000a918339818101604052810190620000299190620002f8565b600034116200006f576040517f08c379a00000000000000000000000000000000000000000000000000000000081526004016200006690620003a0565b60405180910390fd5b600073ffffffffffffffffffffffffffffffffffffffff168273ffffffffffffffffffffffffffffffffffffffff1603620000e1576040517f08c379a0000000000000000000000000000000000000000000000000000000008152600401620000d89062000412565b60405180910390fd5b600073ffffffffffffffffffffffffffffffffffffffff168173ffffffffffffffffffffffffffffffffffffffff160362000153576040517f08c379a00000000000000000000000000000000000000000000000000000000081526004016200014a9062000484565b60405180910390fd5b8173ffffffffffffffffffffffffffffffffffffffff163373ffffffffffffffffffffffffffffffffffffffff1603620001c4576040517f08c379a0000000000000000000000000000000000000000000000000000000008152600401620001bb906200051c565b60405180910390fd5b816000806101000a81548173ffffffffffffffffffffffffffffffffffffffff021916908373ffffffffffffffffffffffffffffffffffffffff16021790555080600160006101000a81548173ffffffffffffffffffffffffffffffffffffffff021916908373ffffffffffffffffffffffffffffffffffffffff16021790555033600260006101000a81548173ffffffffffffffffffffffffffffffffffffffff021916908373ffffffffffffffffffffffffffffffffffffffff16021790555050506200053e565b600080fd5b600073ffffffffffffffffffffffffffffffffffffffff82169050919050565b6000620002c08262000293565b9050919050565b620002d281620002b3565b8114620002de57600080fd5b50565b600081519050620002f281620002c7565b92915050565b600080604083850312156200031257620003116200028e565b5b60006200032285828601620002e1565b92505060206200033585828601620002e1565b9150509250929050565b600082825260208201905092915050565b7f596f75206d757374206465706f73697420736f6d652045746865720000000000600082015250565b600062000388601b836200033f565b9150620003958262000350565b602082019050919050565b60006020820190508181036000830152620003bb8162000379565b9050919050565b7f496e76616c696420617262697465722061646472657373000000000000000000600082015250565b6000620003fa6017836200033f565b91506200040782620003c2565b602082019050919050565b600060208201905081810360008301526200042d81620003eb565b9050919050565b7f496e76616c69642062656e656669636961727920616464726573730000000000600082015250565b60006200046c601b836200033f565b9150620004798262000434565b602082019050919050565b600060208201905081810360008301526200049f816200045d565b9050919050565b7f4172626974657220616e64206465706f7369746f722063616e6e6f742062652060008201527f7468652073616d65000000000000000000000000000000000000000000000000602082015250565b6000620005046028836200033f565b91506200051182620004a6565b604082019050919050565b600060208201905081810360008301526200053781620004f5565b9050919050565b610543806200054e6000396000f3fe608060405234801561001057600080fd5b50600436106100575760003560e01c806312424e3f1461005c57806328f371aa1461006657806338af3eed14610084578063c7c4ff46146100a2578063fe25e00a146100c0575b600080fd5b6100646100de565b005b61006e610295565b60405161007b9190610333565b60405180910390f35b61008c6102a8565b604051610099919061038f565b60405180910390f35b6100aa6102ce565b6040516100b7919061038f565b60405180910390f35b6100c86102f4565b6040516100d5919061038f565b60405180910390f35b60008054906101000a900473ffffffffffffffffffffffffffffffffffffffff1673ffffffffffffffffffffffffffffffffffffffff163373ffffffffffffffffffffffffffffffffffffffff161461016c576040517f08c379a000000000000000000000000000000000000000000000000000000000815260040161016390610407565b60405180910390fd5b60004790506000600160009054906101000a900473ffffffffffffffffffffffffffffffffffffffff1673ffffffffffffffffffffffffffffffffffffffff16826040516101b990610458565b60006040518083038185875af1925050503d80600081146101f6576040519150601f19603f3d011682016040523d82523d6000602084013e6101fb565b606091505b505090508061023f576040517f08c379a0000000000000000000000000000000000000000000000000000000008152600401610236906104b9565b60405180910390fd5b7f3ad93af63cb7967b23e4fb500b7d7d28b07516325dcf341f88bebf959d82c1cb8260405161026e91906104f2565b60405180910390a16001600260146101000a81548160ff0219169083151502179055505050565b600260149054906101000a900460ff1681565b600160009054906101000a900473ffffffffffffffffffffffffffffffffffffffff1681565b600260009054906101000a900473ffffffffffffffffffffffffffffffffffffffff1681565b60008054906101000a900473ffffffffffffffffffffffffffffffffffffffff1681565b60008115159050919050565b61032d81610318565b82525050565b60006020820190506103486000830184610324565b92915050565b600073ffffffffffffffffffffffffffffffffffffffff82169050919050565b60006103798261034e565b9050919050565b6103898161036e565b82525050565b60006020820190506103a46000830184610380565b92915050565b600082825260208201905092915050565b7f596f7520617265206e6f74207468652061726269746572000000000000000000600082015250565b60006103f16017836103aa565b91506103fc826103bb565b602082019050919050565b60006020820190508181036000830152610420816103e4565b9050919050565b600081905092915050565b50565b6000610442600083610427565b915061044d82610432565b600082019050919050565b600061046382610435565b9150819050919050565b7f4661696c656420746f2073656e64204574686572000000000000000000000000600082015250565b60006104a36014836103aa565b91506104ae8261046d565b602082019050919050565b600060208201905081810360008301526104d281610496565b9050919050565b6000819050919050565b6104ec816104d9565b82525050565b600060208201905061050760008301846104e3565b9291505056fea2646970667358221220f6f0c30f8223cdb137d3d1edd2641aed5118819af35475aaaf0aa21190ddc47264736f6c63430008110033",
  "linkReferences": {},
  "deployedLinkReferences": {}
}